{
  "address": "0x0B2403086af285de8E1B897E7404E3d5CBb1Bb10",
  "abi": [
    {
      "inputs": [],
      "stateMutability": "nonpayable",
      "type": "constructor"
    },
    {
      "anonymous": false,
      "inputs": [
        {
          "indexed": true,
          "internalType": "address",
          "name": "owner",
          "type": "address"
        },
        {
          "indexed": true,
          "internalType": "address",
          "name": "approved",
          "type": "address"
        },
        {
          "indexed": true,
          "internalType": "uint256",
          "name": "tokenId",
          "type": "uint256"
        }
      ],
      "name": "Approval",
      "type": "event"
    },
    {
      "anonymous": false,
      "inputs": [
        {
          "indexed": true,
          "internalType": "address",
          "name": "owner",
          "type": "address"
        },
        {
          "indexed": true,
          "internalType": "address",
          "name": "operator",
          "type": "address"
        },
        {
          "indexed": false,
          "internalType": "bool",
          "name": "approved",
          "type": "bool"
        }
      ],
      "name": "ApprovalForAll",
      "type": "event"
    },
    {
      "anonymous": false,
      "inputs": [
        {
          "indexed": true,
          "internalType": "address",
          "name": "previousOwner",
          "type": "address"
        },
        {
          "indexed": true,
          "internalType": "address",
          "name": "newOwner",
          "type": "address"
        }
      ],
      "name": "OwnershipTransferred",
      "type": "event"
    },
    {
      "anonymous": false,
      "inputs": [
        {
          "indexed": true,
          "internalType": "address",
          "name": "from",
          "type": "address"
        },
        {
          "indexed": true,
          "internalType": "address",
          "name": "to",
          "type": "address"
        },
        {
          "indexed": true,
          "internalType": "uint256",
          "name": "tokenId",
          "type": "uint256"
        }
      ],
      "name": "Transfer",
      "type": "event"
    },
    {
      "inputs": [],
      "name": "DOMAIN_SEPARATOR",
      "outputs": [
        {
          "internalType": "bytes32",
          "name": "",
          "type": "bytes32"
        }
      ],
      "stateMutability": "view",
      "type": "function"
    },
    {
      "inputs": [],
      "name": "PERMIT_TYPEHASH",
      "outputs": [
        {
          "internalType": "bytes32",
          "name": "",
          "type": "bytes32"
        }
      ],
      "stateMutability": "view",
      "type": "function"
    },
    {
      "inputs": [
        {
          "internalType": "address",
          "name": "to",
          "type": "address"
        },
        {
          "internalType": "uint256",
          "name": "tokenId",
          "type": "uint256"
        }
      ],
      "name": "approve",
      "outputs": [],
      "stateMutability": "nonpayable",
      "type": "function"
    },
    {
      "inputs": [
        {
          "internalType": "address",
          "name": "owner",
          "type": "address"
        }
      ],
      "name": "balanceOf",
      "outputs": [
        {
          "internalType": "uint256",
          "name": "",
          "type": "uint256"
        }
      ],
      "stateMutability": "view",
      "type": "function"
    },
    {
      "inputs": [],
      "name": "baseURI",
      "outputs": [
        {
          "internalType": "string",
          "name": "",
          "type": "string"
        }
      ],
      "stateMutability": "view",
      "type": "function"
    },
    {
      "inputs": [
        {
          "internalType": "uint256",
          "name": "tokenId",
          "type": "uint256"
        }
      ],
      "name": "getApproved",
      "outputs": [
        {
          "internalType": "address",
          "name": "",
          "type": "address"
        }
      ],
      "stateMutability": "view",
      "type": "function"
    },
    {
      "inputs": [
        {
          "internalType": "address",
          "name": "owner",
          "type": "address"
        },
        {
          "internalType": "address",
          "name": "operator",
          "type": "address"
        }
      ],
      "name": "isApprovedForAll",
      "outputs": [
        {
          "internalType": "bool",
          "name": "",
          "type": "bool"
        }
      ],
      "stateMutability": "view",
      "type": "function"
    },
    {
      "inputs": [
        {
          "internalType": "address",
          "name": "_to",
          "type": "address"
        },
        {
          "internalType": "uint256",
          "name": "_tokenId",
          "type": "uint256"
        }
      ],
      "name": "mint",
      "outputs": [],
      "stateMutability": "nonpayable",
      "type": "function"
    },
    {
      "inputs": [
        {
          "internalType": "address",
          "name": "_to",
          "type": "address"
        },
        {
          "internalType": "uint256",
          "name": "_start",
          "type": "uint256"
        },
        {
          "internalType": "uint256",
          "name": "_end",
          "type": "uint256"
        }
      ],
      "name": "mintRange",
      "outputs": [],
      "stateMutability": "nonpayable",
      "type": "function"
    },
    {
      "inputs": [],
      "name": "name",
      "outputs": [
        {
          "internalType": "string",
          "name": "",
          "type": "string"
        }
      ],
      "stateMutability": "view",
      "type": "function"
    },
    {
      "inputs": [
        {
          "internalType": "uint256",
          "name": "",
          "type": "uint256"
        }
      ],
      "name": "nonces",
      "outputs": [
        {
          "internalType": "uint256",
          "name": "",
          "type": "uint256"
        }
      ],
      "stateMutability": "view",
      "type": "function"
    },
    {
      "inputs": [],
      "name": "owner",
      "outputs": [
        {
          "internalType": "address",
          "name": "",
          "type": "address"
        }
      ],
      "stateMutability": "view",
      "type": "function"
    },
    {
      "inputs": [
        {
          "internalType": "uint256",
          "name": "tokenId",
          "type": "uint256"
        }
      ],
      "name": "ownerOf",
      "outputs": [
        {
          "internalType": "address",
          "name": "",
          "type": "address"
        }
      ],
      "stateMutability": "view",
      "type": "function"
    },
    {
      "inputs": [
        {
          "internalType": "address",
          "name": "spender",
          "type": "address"
        },
        {
          "internalType": "uint256",
          "name": "tokenId",
          "type": "uint256"
        },
        {
          "internalType": "uint256",
          "name": "deadline",
          "type": "uint256"
        },
        {
          "internalType": "uint8",
          "name": "v",
          "type": "uint8"
        },
        {
          "internalType": "bytes32",
          "name": "r",
          "type": "bytes32"
        },
        {
          "internalType": "bytes32",
          "name": "s",
          "type": "bytes32"
        }
      ],
      "name": "permit",
      "outputs": [],
      "stateMutability": "payable",
      "type": "function"
    },
    {
      "inputs": [],
      "name": "renounceOwnership",
      "outputs": [],
      "stateMutability": "nonpayable",
      "type": "function"
    },
    {
      "inputs": [
        {
          "internalType": "address",
          "name": "from",
          "type": "address"
        },
        {
          "internalType": "address",
          "name": "to",
          "type": "address"
        },
        {
          "internalType": "uint256",
          "name": "tokenId",
          "type": "uint256"
        }
      ],
      "name": "safeTransferFrom",
      "outputs": [],
      "stateMutability": "nonpayable",
      "type": "function"
    },
    {
      "inputs": [
        {
          "internalType": "address",
          "name": "from",
          "type": "address"
        },
        {
          "internalType": "address",
          "name": "to",
          "type": "address"
        },
        {
          "internalType": "uint256",
          "name": "tokenId",
          "type": "uint256"
        },
        {
          "internalType": "bytes",
          "name": "_data",
          "type": "bytes"
        }
      ],
      "name": "safeTransferFrom",
      "outputs": [],
      "stateMutability": "nonpayable",
      "type": "function"
    },
    {
      "inputs": [
        {
          "internalType": "address",
          "name": "operator",
          "type": "address"
        },
        {
          "internalType": "bool",
          "name": "approved",
          "type": "bool"
        }
      ],
      "name": "setApprovalForAll",
      "outputs": [],
      "stateMutability": "nonpayable",
      "type": "function"
    },
    {
      "inputs": [
        {
          "internalType": "string",
          "name": "_baseUri",
          "type": "string"
        }
      ],
      "name": "setBaseURI",
      "outputs": [],
      "stateMutability": "nonpayable",
      "type": "function"
    },
    {
      "inputs": [
        {
          "internalType": "bytes4",
          "name": "interfaceId",
          "type": "bytes4"
        }
      ],
      "name": "supportsInterface",
      "outputs": [
        {
          "internalType": "bool",
          "name": "",
          "type": "bool"
        }
      ],
      "stateMutability": "view",
      "type": "function"
    },
    {
      "inputs": [],
      "name": "symbol",
      "outputs": [
        {
          "internalType": "string",
          "name": "",
          "type": "string"
        }
      ],
      "stateMutability": "view",
      "type": "function"
    },
    {
      "inputs": [
        {
          "internalType": "uint256",
          "name": "index",
          "type": "uint256"
        }
      ],
      "name": "tokenByIndex",
      "outputs": [
        {
          "internalType": "uint256",
          "name": "",
          "type": "uint256"
        }
      ],
      "stateMutability": "view",
      "type": "function"
    },
    {
      "inputs": [
        {
          "internalType": "address",
          "name": "owner",
          "type": "address"
        },
        {
          "internalType": "uint256",
          "name": "index",
          "type": "uint256"
        }
      ],
      "name": "tokenOfOwnerByIndex",
      "outputs": [
        {
          "internalType": "uint256",
          "name": "",
          "type": "uint256"
        }
      ],
      "stateMutability": "view",
      "type": "function"
    },
    {
      "inputs": [
        {
          "internalType": "uint256",
          "name": "tokenId",
          "type": "uint256"
        }
      ],
      "name": "tokenURI",
      "outputs": [
        {
          "internalType": "string",
          "name": "",
          "type": "string"
        }
      ],
      "stateMutability": "view",
      "type": "function"
    },
    {
      "inputs": [],
      "name": "totalSupply",
      "outputs": [
        {
          "internalType": "uint256",
          "name": "",
          "type": "uint256"
        }
      ],
      "stateMutability": "view",
      "type": "function"
    },
    {
      "inputs": [
        {
          "internalType": "address",
          "name": "from",
          "type": "address"
        },
        {
          "internalType": "address",
          "name": "to",
          "type": "address"
        },
        {
          "internalType": "uint256",
          "name": "tokenId",
          "type": "uint256"
        }
      ],
      "name": "transferFrom",
      "outputs": [],
      "stateMutability": "nonpayable",
      "type": "function"
    },
    {
      "inputs": [
        {
          "internalType": "address",
          "name": "newOwner",
          "type": "address"
        }
      ],
      "name": "transferOwnership",
      "outputs": [],
      "stateMutability": "nonpayable",
      "type": "function"
    },
    {
      "inputs": [],
      "name": "version",
      "outputs": [
        {
          "internalType": "string",
          "name": "",
          "type": "string"
        }
      ],
      "stateMutability": "pure",
      "type": "function"
    }
  ],
  "transactionHash": "0x844ebdcca7f712794252bcdbf5e9ab6a12d14621623ca92747af270e28957534",
  "args": [],
  "numDeployments": 1,
  "solcInputHash": "942b36d03cd492194be8186580a14dc0",
  "bytecode": "0x60c06040523480156200001157600080fd5b506040518060400160405280600481526020017f45464659000000000000000000000000000000000000000000000000000000008152506040518060400160405280600481526020017f45464659000000000000000000000000000000000000000000000000000000008152506040518060400160405280600181526020017f31000000000000000000000000000000000000000000000000000000000000008152508282620000ce6301ffc9a760e01b6200024c60201b60201c565b8160069080519060200190620000e692919062000379565b508060079080519060200190620000ff92919062000379565b50620001186380ac58cd60e01b6200024c60201b60201c565b62000130635b5e139f60e01b6200024c60201b60201c565b6200014863780e9d6360e01b6200024c60201b60201c565b5050828051906020012060808181525050808051906020012060a0818152505050505060006200017d6200035560201b60201c565b905080600a60006101000a81548173ffffffffffffffffffffffffffffffffffffffff021916908373ffffffffffffffffffffffffffffffffffffffff1602179055508073ffffffffffffffffffffffffffffffffffffffff16600073ffffffffffffffffffffffffffffffffffffffff167f8be0079c531659141344cd1fd0a4f28419497f9722a3daafe3b4186f6b6457e060405160405180910390a35062000246604051806080016040528060438152602001620040f7604391396200035d60201b60201c565b6200042f565b63ffffffff60e01b817bffffffffffffffffffffffffffffffffffffffffffffffffffffffff19161415620002e9576040517f08c379a000000000000000000000000000000000000000000000000000000000815260040180806020018281038252601c8152602001807f4552433136353a20696e76616c696420696e746572666163652069640000000081525060200191505060405180910390fd5b6001600080837bffffffffffffffffffffffffffffffffffffffffffffffffffffffff19167bffffffffffffffffffffffffffffffffffffffffffffffffffffffff1916815260200190815260200160002060006101000a81548160ff02191690831515021790555050565b600033905090565b80600990805190602001906200037592919062000379565b5050565b828054600181600116156101000203166002900490600052602060002090601f016020900481019282620003b15760008555620003fd565b82601f10620003cc57805160ff1916838001178555620003fd565b82800160010185558215620003fd579182015b82811115620003fc578251825591602001919060010190620003df565b5b5090506200040c919062000410565b5090565b5b808211156200042b57600081600090555060010162000411565b5090565b60805160a051613ca4620004536000398061121d5250806111fc5250613ca46000f3fe6080604052600436106101b75760003560e01c806355f804b3116100ec57806395d89b411161008a578063c87b56dd11610064578063c87b56dd14610bdd578063e985e9c514610c91578063ea8876fa14610d18578063f2fde38b14610d7d576101b7565b806395d89b41146109de578063a22cb46514610a6e578063b88d4fde14610acb576101b7565b806370a08231116100c657806370a08231146108a8578063715018a61461090d5780637ac2ff7b146109245780638da5cb5b1461099d576101b7565b806355f804b3146106eb5780636352211e146107b35780636c0360eb14610818576101b7565b80632f745c591161015957806340c10f191161013357806340c10f191461053657806342842e0e146105915780634f6ccce71461060c57806354fd4d501461065b576101b7565b80632f745c591461047157806330adf81f146104e05780633644e5151461050b576101b7565b8063095ea7b311610195578063095ea7b314610321578063141a468c1461037c57806318160ddd146103cb57806323b872dd146103f6576101b7565b806301ffc9a7146101bc57806306fdde031461022c578063081812fc146102bc575b600080fd5b3480156101c857600080fd5b50610214600480360360208110156101df57600080fd5b8101908080357bffffffffffffffffffffffffffffffffffffffffffffffffffffffff19169060200190929190505050610dce565b60405180821515815260200191505060405180910390f35b34801561023857600080fd5b50610241610e35565b6040518080602001828103825283818151815260200191508051906020019080838360005b83811015610281578082015181840152602081019050610266565b50505050905090810190601f1680156102ae5780820380516001836020036101000a031916815260200191505b509250505060405180910390f35b3480156102c857600080fd5b506102f5600480360360208110156102df57600080fd5b8101908080359060200190929190505050610ed7565b604051808273ffffffffffffffffffffffffffffffffffffffff16815260200191505060405180910390f35b34801561032d57600080fd5b5061037a6004803603604081101561034457600080fd5b81019080803573ffffffffffffffffffffffffffffffffffffffff16906020019092919080359060200190929190505050610f72565b005b34801561038857600080fd5b506103b56004803603602081101561039f57600080fd5b81019080803590602001909291905050506110b6565b6040518082815260200191505060405180910390f35b3480156103d757600080fd5b506103e06110ce565b6040518082815260200191505060405180910390f35b34801561040257600080fd5b5061046f6004803603606081101561041957600080fd5b81019080803573ffffffffffffffffffffffffffffffffffffffff169060200190929190803573ffffffffffffffffffffffffffffffffffffffff169060200190929190803590602001909291905050506110df565b005b34801561047d57600080fd5b506104ca6004803603604081101561049457600080fd5b81019080803573ffffffffffffffffffffffffffffffffffffffff16906020019092919080359060200190929190505050611155565b6040518082815260200191505060405180910390f35b3480156104ec57600080fd5b506104f56111b0565b6040518082815260200191505060405180910390f35b34801561051757600080fd5b506105206111d7565b6040518082815260200191505060405180910390f35b34801561054257600080fd5b5061058f6004803603604081101561055957600080fd5b81019080803573ffffffffffffffffffffffffffffffffffffffff169060200190929190803590602001909291905050506112a2565b005b34801561059d57600080fd5b5061060a600480360360608110156105b457600080fd5b81019080803573ffffffffffffffffffffffffffffffffffffffff169060200190929190803573ffffffffffffffffffffffffffffffffffffffff1690602001909291908035906020019092919050505061135f565b005b34801561061857600080fd5b506106456004803603602081101561062f57600080fd5b810190808035906020019092919050505061137f565b6040518082815260200191505060405180910390f35b34801561066757600080fd5b506106706113a2565b6040518080602001828103825283818151815260200191508051906020019080838360005b838110156106b0578082015181840152602081019050610695565b50505050905090810190601f1680156106dd5780820380516001836020036101000a031916815260200191505b509250505060405180910390f35b3480156106f757600080fd5b506107b16004803603602081101561070e57600080fd5b810190808035906020019064010000000081111561072b57600080fd5b82018360208201111561073d57600080fd5b8035906020019184600183028401116401000000008311171561075f57600080fd5b91908080601f016020809104026020016040519081016040528093929190818152602001838380828437600081840152601f19601f8201169050808301925050505050505091929192905050506113df565b005b3480156107bf57600080fd5b506107ec600480360360208110156107d657600080fd5b810190808035906020019092919050505061149a565b604051808273ffffffffffffffffffffffffffffffffffffffff16815260200191505060405180910390f35b34801561082457600080fd5b5061082d6114d1565b6040518080602001828103825283818151815260200191508051906020019080838360005b8381101561086d578082015181840152602081019050610852565b50505050905090810190601f16801561089a5780820380516001836020036101000a031916815260200191505b509250505060405180910390f35b3480156108b457600080fd5b506108f7600480360360208110156108cb57600080fd5b81019080803573ffffffffffffffffffffffffffffffffffffffff169060200190929190505050611573565b6040518082815260200191505060405180910390f35b34801561091957600080fd5b50610922611648565b005b61099b600480360360c081101561093a57600080fd5b81019080803573ffffffffffffffffffffffffffffffffffffffff1690602001909291908035906020019092919080359060200190929190803560ff16906020019092919080359060200190929190803590602001909291905050506117b8565b005b3480156109a957600080fd5b506109b2611d4d565b604051808273ffffffffffffffffffffffffffffffffffffffff16815260200191505060405180910390f35b3480156109ea57600080fd5b506109f3611d77565b6040518080602001828103825283818151815260200191508051906020019080838360005b83811015610a33578082015181840152602081019050610a18565b50505050905090810190601f168015610a605780820380516001836020036101000a031916815260200191505b509250505060405180910390f35b348015610a7a57600080fd5b50610ac960048036036040811015610a9157600080fd5b81019080803573ffffffffffffffffffffffffffffffffffffffff169060200190929190803515159060200190929190505050611e19565b005b348015610ad757600080fd5b50610bdb60048036036080811015610aee57600080fd5b81019080803573ffffffffffffffffffffffffffffffffffffffff169060200190929190803573ffffffffffffffffffffffffffffffffffffffff1690602001909291908035906020019092919080359060200190640100000000811115610b5557600080fd5b820183602082011115610b6757600080fd5b80359060200191846001830284011164010000000083111715610b8957600080fd5b91908080601f016020809104026020016040519081016040528093929190818152602001838380828437600081840152601f19601f820116905080830192505050505050509192919290505050611fcf565b005b348015610be957600080fd5b50610c1660048036036020811015610c0057600080fd5b8101908080359060200190929190505050612047565b6040518080602001828103825283818151815260200191508051906020019080838360005b83811015610c56578082015181840152602081019050610c3b565b50505050905090810190601f168015610c835780820380516001836020036101000a031916815260200191505b509250505060405180910390f35b348015610c9d57600080fd5b50610d0060048036036040811015610cb457600080fd5b81019080803573ffffffffffffffffffffffffffffffffffffffff169060200190929190803573ffffffffffffffffffffffffffffffffffffffff169060200190929190505050612318565b60405180821515815260200191505060405180910390f35b348015610d2457600080fd5b50610d7b60048036036060811015610d3b57600080fd5b81019080803573ffffffffffffffffffffffffffffffffffffffff16906020019092919080359060200190929190803590602001909291905050506123ac565b005b348015610d8957600080fd5b50610dcc60048036036020811015610da057600080fd5b81019080803573ffffffffffffffffffffffffffffffffffffffff169060200190929190505050612486565b005b6000806000837bffffffffffffffffffffffffffffffffffffffffffffffffffffffff19167bffffffffffffffffffffffffffffffffffffffffffffffffffffffff1916815260200190815260200160002060009054906101000a900460ff169050919050565b606060068054600181600116156101000203166002900480601f016020809104026020016040519081016040528092919081815260200182805460018160011615610100020316600290048015610ecd5780601f10610ea257610100808354040283529160200191610ecd565b820191906000526020600020905b815481529060010190602001808311610eb057829003601f168201915b5050505050905090565b6000610ee28261267b565b610f37576040517f08c379a000000000000000000000000000000000000000000000000000000000815260040180806020018281038252602c815260200180613b99602c913960400191505060405180910390fd5b6004600083815260200190815260200160002060009054906101000a900473ffffffffffffffffffffffffffffffffffffffff169050919050565b6000610f7d8261149a565b90508073ffffffffffffffffffffffffffffffffffffffff168373ffffffffffffffffffffffffffffffffffffffff161415611004576040517f08c379a0000000000000000000000000000000000000000000000000000000008152600401808060200182810382526021815260200180613c1d6021913960400191505060405180910390fd5b8073ffffffffffffffffffffffffffffffffffffffff16611023612698565b73ffffffffffffffffffffffffffffffffffffffff16148061105257506110518161104c612698565b612318565b5b6110a7576040517f08c379a0000000000000000000000000000000000000000000000000000000008152600401808060200182810382526038815260200180613aec6038913960400191505060405180910390fd5b6110b183836126a0565b505050565b600b6020528060005260406000206000915090505481565b60006110da6002612759565b905090565b6110f06110ea612698565b8261276e565b611145576040517f08c379a0000000000000000000000000000000000000000000000000000000008152600401808060200182810382526031815260200180613c3e6031913960400191505060405180910390fd5b611150838383612862565b505050565b60006111a882600160008673ffffffffffffffffffffffffffffffffffffffff1673ffffffffffffffffffffffffffffffffffffffff168152602001908152602001600020612aa590919063ffffffff16565b905092915050565b7f49ecf333e5b8c95c40fdafc95c1ad136e8914a8fb55e9dc8bb01eaa83a2df9ad60001b81565b60007f8b73c3c69bb8fe3d512ecc4cf759cc79239f7b179b0ffacaa9a75d522b39400f7f00000000000000000000000000000000000000000000000000000000000000007f0000000000000000000000000000000000000000000000000000000000000000611244612abf565b30604051602001808681526020018581526020018481526020018381526020018273ffffffffffffffffffffffffffffffffffffffff1681526020019550505050505060405160208183030381529060405280519060200120905090565b6112aa612698565b73ffffffffffffffffffffffffffffffffffffffff166112c8611d4d565b73ffffffffffffffffffffffffffffffffffffffff1614611351576040517f08c379a00000000000000000000000000000000000000000000000000000000081526004018080602001828103825260208152602001807f4f776e61626c653a2063616c6c6572206973206e6f7420746865206f776e657281525060200191505060405180910390fd5b61135b8282612ac7565b5050565b61137a83838360405180602001604052806000815250611fcf565b505050565b600080611396836002612cbb90919063ffffffff16565b50905080915050919050565b60606040518060400160405280600181526020017f3100000000000000000000000000000000000000000000000000000000000000815250905090565b6113e7612698565b73ffffffffffffffffffffffffffffffffffffffff16611405611d4d565b73ffffffffffffffffffffffffffffffffffffffff161461148e576040517f08c379a00000000000000000000000000000000000000000000000000000000081526004018080602001828103825260208152602001807f4f776e61626c653a2063616c6c6572206973206e6f7420746865206f776e657281525060200191505060405180910390fd5b61149781612ce7565b50565b60006114ca82604051806060016040528060298152602001613b4e602991396002612d019092919063ffffffff16565b9050919050565b606060098054600181600116156101000203166002900480601f0160208091040260200160405190810160405280929190818152602001828054600181600116156101000203166002900480156115695780601f1061153e57610100808354040283529160200191611569565b820191906000526020600020905b81548152906001019060200180831161154c57829003601f168201915b5050505050905090565b60008073ffffffffffffffffffffffffffffffffffffffff168273ffffffffffffffffffffffffffffffffffffffff1614156115fa576040517f08c379a000000000000000000000000000000000000000000000000000000000815260040180806020018281038252602a815260200180613b24602a913960400191505060405180910390fd5b611641600160008473ffffffffffffffffffffffffffffffffffffffff1673ffffffffffffffffffffffffffffffffffffffff168152602001908152602001600020612d20565b9050919050565b611650612698565b73ffffffffffffffffffffffffffffffffffffffff1661166e611d4d565b73ffffffffffffffffffffffffffffffffffffffff16146116f7576040517f08c379a00000000000000000000000000000000000000000000000000000000081526004018080602001828103825260208152602001807f4f776e61626c653a2063616c6c6572206973206e6f7420746865206f776e657281525060200191505060405180910390fd5b600073ffffffffffffffffffffffffffffffffffffffff16600a60009054906101000a900473ffffffffffffffffffffffffffffffffffffffff1673ffffffffffffffffffffffffffffffffffffffff167f8be0079c531659141344cd1fd0a4f28419497f9722a3daafe3b4186f6b6457e060405160405180910390a36000600a60006101000a81548173ffffffffffffffffffffffffffffffffffffffff021916908373ffffffffffffffffffffffffffffffffffffffff160217905550565b836117c1612d35565b1115611835576040517f08c379a000000000000000000000000000000000000000000000000000000000815260040180806020018281038252600e8152602001807f5065726d6974206578706972656400000000000000000000000000000000000081525060200191505060405180910390fd5b600061183f6111d7565b7f49ecf333e5b8c95c40fdafc95c1ad136e8914a8fb55e9dc8bb01eaa83a2df9ad60001b888861186e8a612d3d565b89604051602001808681526020018573ffffffffffffffffffffffffffffffffffffffff168152602001848152602001838152602001828152602001955050505050506040516020818303038152906040528051906020012060405160200180807f19010000000000000000000000000000000000000000000000000000000000008152506002018381526020018281526020019250505060405160208183030381529060405280519060200120905060006119298761149a565b90508073ffffffffffffffffffffffffffffffffffffffff168873ffffffffffffffffffffffffffffffffffffffff1614156119b0576040517f08c379a0000000000000000000000000000000000000000000000000000000008152600401808060200182810382526027815260200180613a4f6027913960400191505060405180910390fd5b6119b981612d82565b15611b8b57631626ba7e60e01b8173ffffffffffffffffffffffffffffffffffffffff16631626ba7e8487878a604051602001808481526020018381526020018260ff1660f81b815260010193505050506040516020818303038152906040526040518363ffffffff1660e01b81526004018083815260200180602001828103825283818151815260200191508051906020019080838360005b83811015611a6e578082015181840152602081019050611a53565b50505050905090810190601f168015611a9b5780820380516001836020036101000a031916815260200191505b50935050505060206040518083038186803b158015611ab957600080fd5b505afa158015611acd573d6000803e3d6000fd5b505050506040513d6020811015611ae357600080fd5b81019080805190602001909291905050507bffffffffffffffffffffffffffffffffffffffffffffffffffffffff191614611b86576040517f08c379a000000000000000000000000000000000000000000000000000000000815260040180806020018281038252600c8152602001807f556e617574686f72697a6564000000000000000000000000000000000000000081525060200191505060405180910390fd5b611d39565b600060018387878760405160008152602001604052604051808581526020018460ff1681526020018381526020018281526020019450505050506020604051602081039080840390855afa158015611be7573d6000803e3d6000fd5b505050602060405103519050600073ffffffffffffffffffffffffffffffffffffffff168173ffffffffffffffffffffffffffffffffffffffff161415611c96576040517f08c379a00000000000000000000000000000000000000000000000000000000081526004018080602001828103825260118152602001807f496e76616c6964207369676e617475726500000000000000000000000000000081525060200191505060405180910390fd5b8173ffffffffffffffffffffffffffffffffffffffff168173ffffffffffffffffffffffffffffffffffffffff1614611d37576040517f08c379a000000000000000000000000000000000000000000000000000000000815260040180806020018281038252600c8152602001807f556e617574686f72697a6564000000000000000000000000000000000000000081525060200191505060405180910390fd5b505b611d4388886126a0565b5050505050505050565b6000600a60009054906101000a900473ffffffffffffffffffffffffffffffffffffffff16905090565b606060078054600181600116156101000203166002900480601f016020809104026020016040519081016040528092919081815260200182805460018160011615610100020316600290048015611e0f5780601f10611de457610100808354040283529160200191611e0f565b820191906000526020600020905b815481529060010190602001808311611df257829003601f168201915b5050505050905090565b611e21612698565b73ffffffffffffffffffffffffffffffffffffffff168273ffffffffffffffffffffffffffffffffffffffff161415611ec2576040517f08c379a00000000000000000000000000000000000000000000000000000000081526004018080602001828103825260198152602001807f4552433732313a20617070726f766520746f2063616c6c65720000000000000081525060200191505060405180910390fd5b8060056000611ecf612698565b73ffffffffffffffffffffffffffffffffffffffff1673ffffffffffffffffffffffffffffffffffffffff16815260200190815260200160002060008473ffffffffffffffffffffffffffffffffffffffff1673ffffffffffffffffffffffffffffffffffffffff16815260200190815260200160002060006101000a81548160ff0219169083151502179055508173ffffffffffffffffffffffffffffffffffffffff16611f7c612698565b73ffffffffffffffffffffffffffffffffffffffff167f17307eab39ab6107e8899845ad3d59bd9653f200f220920489ca2b5937696c318360405180821515815260200191505060405180910390a35050565b611fe0611fda612698565b8361276e565b612035576040517f08c379a0000000000000000000000000000000000000000000000000000000008152600401808060200182810382526031815260200180613c3e6031913960400191505060405180910390fd5b61204184848484612d95565b50505050565b60606120528261267b565b6120a7576040517f08c379a000000000000000000000000000000000000000000000000000000000815260040180806020018281038252602f815260200180613bee602f913960400191505060405180910390fd5b6000600860008481526020019081526020016000208054600181600116156101000203166002900480601f0160208091040260200160405190810160405280929190818152602001828054600181600116156101000203166002900480156121505780601f1061212557610100808354040283529160200191612150565b820191906000526020600020905b81548152906001019060200180831161213357829003601f168201915b5050505050905060006121616114d1565b9050600081511415612177578192505050612313565b6000825111156122485780826040516020018083805190602001908083835b602083106121b95780518252602082019150602081019050602083039250612196565b6001836020036101000a03801982511681845116808217855250505050505090500182805190602001908083835b6020831061220a57805182526020820191506020810190506020830392506121e7565b6001836020036101000a0380198251168184511680821785525050505050509050019250505060405160208183030381529060405292505050612313565b8061225285612e07565b6040516020018083805190602001908083835b602083106122885780518252602082019150602081019050602083039250612265565b6001836020036101000a03801982511681845116808217855250505050505090500182805190602001908083835b602083106122d957805182526020820191506020810190506020830392506122b6565b6001836020036101000a03801982511681845116808217855250505050505090500192505050604051602081830303815290604052925050505b919050565b6000600560008473ffffffffffffffffffffffffffffffffffffffff1673ffffffffffffffffffffffffffffffffffffffff16815260200190815260200160002060008373ffffffffffffffffffffffffffffffffffffffff1673ffffffffffffffffffffffffffffffffffffffff16815260200190815260200160002060009054906101000a900460ff16905092915050565b6123b4612698565b73ffffffffffffffffffffffffffffffffffffffff166123d2611d4d565b73ffffffffffffffffffffffffffffffffffffffff161461245b576040517f08c379a00000000000000000000000000000000000000000000000000000000081526004018080602001828103825260208152602001807f4f776e61626c653a2063616c6c6572206973206e6f7420746865206f776e657281525060200191505060405180910390fd5b60008290505b81811015612480576124738482612ac7565b8080600101915050612461565b50505050565b61248e612698565b73ffffffffffffffffffffffffffffffffffffffff166124ac611d4d565b73ffffffffffffffffffffffffffffffffffffffff1614612535576040517f08c379a00000000000000000000000000000000000000000000000000000000081526004018080602001828103825260208152602001807f4f776e61626c653a2063616c6c6572206973206e6f7420746865206f776e657281525060200191505060405180910390fd5b600073ffffffffffffffffffffffffffffffffffffffff168173ffffffffffffffffffffffffffffffffffffffff1614156125bb576040517f08c379a0000000000000000000000000000000000000000000000000000000008152600401808060200182810382526026815260200180613a296026913960400191505060405180910390fd5b8073ffffffffffffffffffffffffffffffffffffffff16600a60009054906101000a900473ffffffffffffffffffffffffffffffffffffffff1673ffffffffffffffffffffffffffffffffffffffff167f8be0079c531659141344cd1fd0a4f28419497f9722a3daafe3b4186f6b6457e060405160405180910390a380600a60006101000a81548173ffffffffffffffffffffffffffffffffffffffff021916908373ffffffffffffffffffffffffffffffffffffffff16021790555050565b6000612691826002612f4e90919063ffffffff16565b9050919050565b600033905090565b816004600083815260200190815260200160002060006101000a81548173ffffffffffffffffffffffffffffffffffffffff021916908373ffffffffffffffffffffffffffffffffffffffff160217905550808273ffffffffffffffffffffffffffffffffffffffff166127138361149a565b73ffffffffffffffffffffffffffffffffffffffff167f8c5be1e5ebec7d5bd14f71427d1e84f3dd0314c0f7b2291e5b200ac8c7c3b92560405160405180910390a45050565b600061276782600001612f68565b9050919050565b60006127798261267b565b6127ce576040517f08c379a000000000000000000000000000000000000000000000000000000000815260040180806020018281038252602c815260200180613ac0602c913960400191505060405180910390fd5b60006127d98361149a565b90508073ffffffffffffffffffffffffffffffffffffffff168473ffffffffffffffffffffffffffffffffffffffff16148061284857508373ffffffffffffffffffffffffffffffffffffffff1661283084610ed7565b73ffffffffffffffffffffffffffffffffffffffff16145b8061285957506128588185612318565b5b91505092915050565b8273ffffffffffffffffffffffffffffffffffffffff166128828261149a565b73ffffffffffffffffffffffffffffffffffffffff16146128ee576040517f08c379a0000000000000000000000000000000000000000000000000000000008152600401808060200182810382526029815260200180613bc56029913960400191505060405180910390fd5b600073ffffffffffffffffffffffffffffffffffffffff168273ffffffffffffffffffffffffffffffffffffffff161415612974576040517f08c379a0000000000000000000000000000000000000000000000000000000008152600401808060200182810382526024815260200180613a766024913960400191505060405180910390fd5b61297f838383612f79565b61298a6000826126a0565b6129db81600160008673ffffffffffffffffffffffffffffffffffffffff1673ffffffffffffffffffffffffffffffffffffffff168152602001908152602001600020612f7e90919063ffffffff16565b50612a2d81600160008573ffffffffffffffffffffffffffffffffffffffff1673ffffffffffffffffffffffffffffffffffffffff168152602001908152602001600020612f9890919063ffffffff16565b50612a4481836002612fb29092919063ffffffff16565b50808273ffffffffffffffffffffffffffffffffffffffff168473ffffffffffffffffffffffffffffffffffffffff167fddf252ad1be2c89b69c2b068fc378daa952ba7f163c4a11628f55a4df523b3ef60405160405180910390a4505050565b6000612ab48360000183612fe7565b60001c905092915050565b600046905090565b600073ffffffffffffffffffffffffffffffffffffffff168273ffffffffffffffffffffffffffffffffffffffff161415612b6a576040517f08c379a00000000000000000000000000000000000000000000000000000000081526004018080602001828103825260208152602001807f4552433732313a206d696e7420746f20746865207a65726f206164647265737381525060200191505060405180910390fd5b612b738161267b565b15612be6576040517f08c379a000000000000000000000000000000000000000000000000000000000815260040180806020018281038252601c8152602001807f4552433732313a20746f6b656e20616c7265616479206d696e7465640000000081525060200191505060405180910390fd5b612bf260008383612f79565b612c4381600160008573ffffffffffffffffffffffffffffffffffffffff1673ffffffffffffffffffffffffffffffffffffffff168152602001908152602001600020612f9890919063ffffffff16565b50612c5a81836002612fb29092919063ffffffff16565b50808273ffffffffffffffffffffffffffffffffffffffff16600073ffffffffffffffffffffffffffffffffffffffff167fddf252ad1be2c89b69c2b068fc378daa952ba7f163c4a11628f55a4df523b3ef60405160405180910390a45050565b600080600080612cce866000018661306a565b915091508160001c8160001c9350935050509250929050565b8060099080519060200190612cfd929190613929565b5050565b6000612d14846000018460001b84613103565b60001c90509392505050565b6000612d2e826000016131f9565b9050919050565b600042905090565b600080600b6000848152602001908152602001600020549050600b60008481526020019081526020016000206000815480929190600101919050555080915050919050565b600080823b905060008111915050919050565b612da0848484612862565b612dac8484848461320a565b612e01576040517f08c379a00000000000000000000000000000000000000000000000000000000081526004018080602001828103825260328152602001806139f76032913960400191505060405180910390fd5b50505050565b60606000821415612e4f576040518060400160405280600181526020017f30000000000000000000000000000000000000000000000000000000000000008152509050612f49565b600082905060005b60008214612e79578080600101915050600a8281612e7157fe5b049150612e57565b60008167ffffffffffffffff81118015612e9257600080fd5b506040519080825280601f01601f191660200182016040528015612ec55781602001600182028036833780820191505090505b50905060006001830390508593505b60008414612f4157600a8481612ee657fe5b0660300160f81b82828060019003935081518110612f0057fe5b60200101907effffffffffffffffffffffffffffffffffffffffffffffffffffffffffffff1916908160001a905350600a8481612f3957fe5b049350612ed4565b819450505050505b919050565b6000612f60836000018360001b613423565b905092915050565b600081600001805490509050919050565b505050565b6000612f90836000018360001b613446565b905092915050565b6000612faa836000018360001b61352e565b905092915050565b6000612fde846000018460001b8473ffffffffffffffffffffffffffffffffffffffff1660001b61359e565b90509392505050565b600081836000018054905011613048576040517f08c379a00000000000000000000000000000000000000000000000000000000081526004018080602001828103825260228152602001806139d56022913960400191505060405180910390fd5b82600001828154811061305757fe5b9060005260206000200154905092915050565b600080828460000180549050116130cc576040517f08c379a0000000000000000000000000000000000000000000000000000000008152600401808060200182810382526022815260200180613b776022913960400191505060405180910390fd5b60008460000184815481106130dd57fe5b906000526020600020906002020190508060000154816001015492509250509250929050565b600080846001016000858152602001908152602001600020549050600081141583906131ca576040517f08c379a00000000000000000000000000000000000000000000000000000000081526004018080602001828103825283818151815260200191508051906020019080838360005b8381101561318f578082015181840152602081019050613174565b50505050905090810190601f1680156131bc5780820380516001836020036101000a031916815260200191505b509250505060405180910390fd5b508460000160018203815481106131dd57fe5b9060005260206000209060020201600101549150509392505050565b600081600001805490509050919050565b600061322b8473ffffffffffffffffffffffffffffffffffffffff16612d82565b613238576001905061341b565b60006133a263150b7a0260e01b61324d612698565b888787604051602401808573ffffffffffffffffffffffffffffffffffffffff1681526020018473ffffffffffffffffffffffffffffffffffffffff16815260200183815260200180602001828103825283818151815260200191508051906020019080838360005b838110156132d15780820151818401526020810190506132b6565b50505050905090810190601f1680156132fe5780820380516001836020036101000a031916815260200191505b5095505050505050604051602081830303815290604052907bffffffffffffffffffffffffffffffffffffffffffffffffffffffff19166020820180517bffffffffffffffffffffffffffffffffffffffffffffffffffffffff83818316178352505050506040518060600160405280603281526020016139f7603291398773ffffffffffffffffffffffffffffffffffffffff1661367a9092919063ffffffff16565b905060008180602001905160208110156133bb57600080fd5b8101908080519060200190929190505050905063150b7a0260e01b7bffffffffffffffffffffffffffffffffffffffffffffffffffffffff1916817bffffffffffffffffffffffffffffffffffffffffffffffffffffffff191614925050505b949350505050565b600080836001016000848152602001908152602001600020541415905092915050565b60008083600101600084815260200190815260200160002054905060008114613522576000600182039050600060018660000180549050039050600086600001828154811061349157fe5b90600052602060002001549050808760000184815481106134ae57fe5b90600052602060002001819055506001830187600101600083815260200190815260200160002081905550866000018054806134e657fe5b60019003818190600052602060002001600090559055866001016000878152602001908152602001600020600090556001945050505050613528565b60009150505b92915050565b600061353a8383613692565b613593578260000182908060018154018082558091505060019003906000526020600020016000909190919091505582600001805490508360010160008481526020019081526020016000208190555060019050613598565b600090505b92915050565b600080846001016000858152602001908152602001600020549050600081141561364557846000016040518060400160405280868152602001858152509080600181540180825580915050600190039060005260206000209060020201600090919091909150600082015181600001556020820151816001015550508460000180549050856001016000868152602001908152602001600020819055506001915050613673565b8285600001600183038154811061365857fe5b90600052602060002090600202016001018190555060009150505b9392505050565b606061368984846000856136b5565b90509392505050565b600080836001016000848152602001908152602001600020541415905092915050565b606082471015613710576040517f08c379a0000000000000000000000000000000000000000000000000000000008152600401808060200182810382526026815260200180613a9a6026913960400191505060405180910390fd5b61371985612d82565b61378b576040517f08c379a000000000000000000000000000000000000000000000000000000000815260040180806020018281038252601d8152602001807f416464726573733a2063616c6c20746f206e6f6e2d636f6e747261637400000081525060200191505060405180910390fd5b6000808673ffffffffffffffffffffffffffffffffffffffff1685876040518082805190602001908083835b602083106137da57805182526020820191506020810190506020830392506137b7565b6001836020036101000a03801982511681845116808217855250505050505090500191505060006040518083038185875af1925050503d806000811461383c576040519150601f19603f3d011682016040523d82523d6000602084013e613841565b606091505b509150915061385182828661385d565b92505050949350505050565b6060831561386d57829050613922565b6000835111156138805782518084602001fd5b816040517f08c379a00000000000000000000000000000000000000000000000000000000081526004018080602001828103825283818151815260200191508051906020019080838360005b838110156138e75780820151818401526020810190506138cc565b50505050905090810190601f1680156139145780820380516001836020036101000a031916815260200191505b509250505060405180910390fd5b9392505050565b828054600181600116156101000203166002900490600052602060002090601f01602090048101928261395f57600085556139a6565b82601f1061397857805160ff19168380011785556139a6565b828001600101855582156139a6579182015b828111156139a557825182559160200191906001019061398a565b5b5090506139b391906139b7565b5090565b5b808211156139d05760008160009055506001016139b8565b509056fe456e756d657261626c655365743a20696e646578206f7574206f6620626f756e64734552433732313a207472616e7366657220746f206e6f6e20455243373231526563656976657220696d706c656d656e7465724f776e61626c653a206e6577206f776e657220697320746865207a65726f20616464726573734552433732315065726d69743a20617070726f76616c20746f2063757272656e74206f776e65724552433732313a207472616e7366657220746f20746865207a65726f2061646472657373416464726573733a20696e73756666696369656e742062616c616e636520666f722063616c6c4552433732313a206f70657261746f7220717565727920666f72206e6f6e6578697374656e7420746f6b656e4552433732313a20617070726f76652063616c6c6572206973206e6f74206f776e6572206e6f7220617070726f76656420666f7220616c6c4552433732313a2062616c616e636520717565727920666f7220746865207a65726f20616464726573734552433732313a206f776e657220717565727920666f72206e6f6e6578697374656e7420746f6b656e456e756d657261626c654d61703a20696e646578206f7574206f6620626f756e64734552433732313a20617070726f76656420717565727920666f72206e6f6e6578697374656e7420746f6b656e4552433732313a207472616e73666572206f6620746f6b656e2074686174206973206e6f74206f776e4552433732314d657461646174613a2055524920717565727920666f72206e6f6e6578697374656e7420746f6b656e4552433732313a20617070726f76616c20746f2063757272656e74206f776e65724552433732313a207472616e736665722063616c6c6572206973206e6f74206f776e6572206e6f7220617070726f766564a2646970667358221220f23deec83df142befbd6c5d06f357b11907dd584121212e90324f38e2943ff0564736f6c63430007060033697066733a2f2f6261667962656961626b70756f627a6d623235346f646c6e777565756e70366f763635787268636a6c796770617a757462687362787871667379752f",
  "devdoc": {
    "kind": "dev",
    "methods": {
      "DOMAIN_SEPARATOR()": {
        "returns": {
          "_0": "The domain seperator used in encoding of permit signature"
        }
      },
      "approve(address,uint256)": {
        "details": "See {IERC721-approve}."
      },
      "balanceOf(address)": {
        "details": "See {IERC721-balanceOf}."
      },
      "baseURI()": {
        "details": "Returns the base URI set via {_setBaseURI}. This will be automatically added as a prefix in {tokenURI} to each token's URI, or to the token ID if no specific URI is set for that token ID."
      },
      "getApproved(uint256)": {
        "details": "See {IERC721-getApproved}."
      },
      "isApprovedForAll(address,address)": {
        "details": "See {IERC721-isApprovedForAll}."
      },
      "name()": {
        "details": "See {IERC721Metadata-name}."
      },
      "owner()": {
        "details": "Returns the address of the current owner."
      },
      "ownerOf(uint256)": {
        "details": "See {IERC721-ownerOf}."
      },
      "permit(address,uint256,uint256,uint8,bytes32,bytes32)": {
        "params": {
          "deadline": "The deadline timestamp by which the call must be mined for the approve to work",
          "r": "Must produce valid secp256k1 signature from the holder along with `v` and `s`",
          "s": "Must produce valid secp256k1 signature from the holder along with `r` and `v`",
          "spender": "The account that is being approved",
          "tokenId": "The ID of the token that is being approved for spending",
          "v": "Must produce valid secp256k1 signature from the holder along with `r` and `s`"
        }
      },
      "renounceOwnership()": {
        "details": "Leaves the contract without owner. It will not be possible to call `onlyOwner` functions anymore. Can only be called by the current owner. NOTE: Renouncing ownership will leave the contract without an owner, thereby removing any functionality that is only available to the owner."
      },
      "safeTransferFrom(address,address,uint256)": {
        "details": "See {IERC721-safeTransferFrom}."
      },
      "safeTransferFrom(address,address,uint256,bytes)": {
        "details": "See {IERC721-safeTransferFrom}."
      },
      "setApprovalForAll(address,bool)": {
        "details": "See {IERC721-setApprovalForAll}."
      },
      "supportsInterface(bytes4)": {
        "details": "See {IERC165-supportsInterface}. Time complexity O(1), guaranteed to always use less than 30 000 gas."
      },
      "symbol()": {
        "details": "See {IERC721Metadata-symbol}."
      },
      "tokenByIndex(uint256)": {
        "details": "See {IERC721Enumerable-tokenByIndex}."
      },
      "tokenOfOwnerByIndex(address,uint256)": {
        "details": "See {IERC721Enumerable-tokenOfOwnerByIndex}."
      },
      "tokenURI(uint256)": {
        "details": "See {IERC721Metadata-tokenURI}."
      },
      "totalSupply()": {
        "details": "See {IERC721Enumerable-totalSupply}."
      },
      "transferFrom(address,address,uint256)": {
        "details": "See {IERC721-transferFrom}."
      },
      "transferOwnership(address)": {
        "details": "Transfers ownership of the contract to a new account (`newOwner`). Can only be called by the current owner."
      }
    },
    "version": 1
  },
  "userdoc": {
    "kind": "user",
    "methods": {
      "DOMAIN_SEPARATOR()": {
        "notice": "The domain separator used in the permit signature"
      },
      "PERMIT_TYPEHASH()": {
        "notice": "The permit typehash used in the permit signature"
      },
      "permit(address,uint256,uint256,uint8,bytes32,bytes32)": {
        "notice": "Approve of a specific token ID for spending by spender via signature"
      }
    },
    "version": 1
  },
  "storageLayout": {
    "storage": [
      {
        "astId": 123,
        "contract": "contracts/EFFY.sol:EFFY",
        "label": "_supportedInterfaces",
        "offset": 0,
        "slot": "0",
        "type": "t_mapping(t_bytes4,t_bool)"
      },
      {
        "astId": 579,
        "contract": "contracts/EFFY.sol:EFFY",
        "label": "_holderTokens",
        "offset": 0,
        "slot": "1",
        "type": "t_mapping(t_address,t_struct(UintSet)2945_storage)"
      },
      {
        "astId": 581,
        "contract": "contracts/EFFY.sol:EFFY",
        "label": "_tokenOwners",
        "offset": 0,
        "slot": "2",
        "type": "t_struct(UintToAddressMap)2322_storage"
      },
      {
        "astId": 585,
        "contract": "contracts/EFFY.sol:EFFY",
        "label": "_tokenApprovals",
        "offset": 0,
        "slot": "4",
        "type": "t_mapping(t_uint256,t_address)"
      },
      {
        "astId": 591,
        "contract": "contracts/EFFY.sol:EFFY",
        "label": "_operatorApprovals",
        "offset": 0,
        "slot": "5",
        "type": "t_mapping(t_address,t_mapping(t_address,t_bool))"
      },
      {
        "astId": 593,
        "contract": "contracts/EFFY.sol:EFFY",
        "label": "_name",
        "offset": 0,
        "slot": "6",
        "type": "t_string_storage"
      },
      {
        "astId": 595,
        "contract": "contracts/EFFY.sol:EFFY",
        "label": "_symbol",
        "offset": 0,
        "slot": "7",
        "type": "t_string_storage"
      },
      {
        "astId": 599,
        "contract": "contracts/EFFY.sol:EFFY",
        "label": "_tokenURIs",
        "offset": 0,
        "slot": "8",
        "type": "t_mapping(t_uint256,t_string_storage)"
      },
      {
        "astId": 601,
        "contract": "contracts/EFFY.sol:EFFY",
        "label": "_baseURI",
        "offset": 0,
        "slot": "9",
        "type": "t_string_storage"
      },
      {
        "astId": 7,
        "contract": "contracts/EFFY.sol:EFFY",
        "label": "_owner",
        "offset": 0,
        "slot": "10",
        "type": "t_address"
      },
      {
        "astId": 3426,
        "contract": "contracts/EFFY.sol:EFFY",
        "label": "nonces",
        "offset": 0,
        "slot": "11",
        "type": "t_mapping(t_uint256,t_uint256)"
      }
    ],
    "types": {
      "t_address": {
        "encoding": "inplace",
        "label": "address",
        "numberOfBytes": "20"
      },
      "t_array(t_bytes32)dyn_storage": {
        "base": "t_bytes32",
        "encoding": "dynamic_array",
        "label": "bytes32[]",
        "numberOfBytes": "32"
      },
      "t_array(t_struct(MapEntry)1996_storage)dyn_storage": {
        "base": "t_struct(MapEntry)1996_storage",
        "encoding": "dynamic_array",
        "label": "struct EnumerableMap.MapEntry[]",
        "numberOfBytes": "32"
      },
      "t_bool": {
        "encoding": "inplace",
        "label": "bool",
        "numberOfBytes": "1"
      },
      "t_bytes32": {
        "encoding": "inplace",
        "label": "bytes32",
        "numberOfBytes": "32"
      },
      "t_bytes4": {
        "encoding": "inplace",
        "label": "bytes4",
        "numberOfBytes": "4"
      },
      "t_mapping(t_address,t_bool)": {
        "encoding": "mapping",
        "key": "t_address",
        "label": "mapping(address => bool)",
        "numberOfBytes": "32",
        "value": "t_bool"
      },
      "t_mapping(t_address,t_mapping(t_address,t_bool))": {
        "encoding": "mapping",
        "key": "t_address",
        "label": "mapping(address => mapping(address => bool))",
        "numberOfBytes": "32",
        "value": "t_mapping(t_address,t_bool)"
      },
      "t_mapping(t_address,t_struct(UintSet)2945_storage)": {
        "encoding": "mapping",
        "key": "t_address",
        "label": "mapping(address => struct EnumerableSet.UintSet)",
        "numberOfBytes": "32",
        "value": "t_struct(UintSet)2945_storage"
      },
      "t_mapping(t_bytes32,t_uint256)": {
        "encoding": "mapping",
        "key": "t_bytes32",
        "label": "mapping(bytes32 => uint256)",
        "numberOfBytes": "32",
        "value": "t_uint256"
      },
      "t_mapping(t_bytes4,t_bool)": {
        "encoding": "mapping",
        "key": "t_bytes4",
        "label": "mapping(bytes4 => bool)",
        "numberOfBytes": "32",
        "value": "t_bool"
      },
      "t_mapping(t_uint256,t_address)": {
        "encoding": "mapping",
        "key": "t_uint256",
        "label": "mapping(uint256 => address)",
        "numberOfBytes": "32",
        "value": "t_address"
      },
      "t_mapping(t_uint256,t_string_storage)": {
        "encoding": "mapping",
        "key": "t_uint256",
        "label": "mapping(uint256 => string)",
        "numberOfBytes": "32",
        "value": "t_string_storage"
      },
      "t_mapping(t_uint256,t_uint256)": {
        "encoding": "mapping",
        "key": "t_uint256",
        "label": "mapping(uint256 => uint256)",
        "numberOfBytes": "32",
        "value": "t_uint256"
      },
      "t_string_storage": {
        "encoding": "bytes",
        "label": "string",
        "numberOfBytes": "32"
      },
      "t_struct(Map)2004_storage": {
        "encoding": "inplace",
        "label": "struct EnumerableMap.Map",
        "members": [
          {
            "astId": 1999,
            "contract": "contracts/EFFY.sol:EFFY",
            "label": "_entries",
            "offset": 0,
            "slot": "0",
            "type": "t_array(t_struct(MapEntry)1996_storage)dyn_storage"
          },
          {
            "astId": 2003,
            "contract": "contracts/EFFY.sol:EFFY",
            "label": "_indexes",
            "offset": 0,
            "slot": "1",
            "type": "t_mapping(t_bytes32,t_uint256)"
          }
        ],
        "numberOfBytes": "64"
      },
      "t_struct(MapEntry)1996_storage": {
        "encoding": "inplace",
        "label": "struct EnumerableMap.MapEntry",
        "members": [
          {
            "astId": 1993,
            "contract": "contracts/EFFY.sol:EFFY",
            "label": "_key",
            "offset": 0,
            "slot": "0",
            "type": "t_bytes32"
          },
          {
            "astId": 1995,
            "contract": "contracts/EFFY.sol:EFFY",
            "label": "_value",
            "offset": 0,
            "slot": "1",
            "type": "t_bytes32"
          }
        ],
        "numberOfBytes": "64"
      },
      "t_struct(Set)2559_storage": {
        "encoding": "inplace",
        "label": "struct EnumerableSet.Set",
        "members": [
          {
            "astId": 2554,
            "contract": "contracts/EFFY.sol:EFFY",
            "label": "_values",
            "offset": 0,
            "slot": "0",
            "type": "t_array(t_bytes32)dyn_storage"
          },
          {
            "astId": 2558,
            "contract": "contracts/EFFY.sol:EFFY",
            "label": "_indexes",
            "offset": 0,
            "slot": "1",
            "type": "t_mapping(t_bytes32,t_uint256)"
          }
        ],
        "numberOfBytes": "64"
      },
      "t_struct(UintSet)2945_storage": {
        "encoding": "inplace",
        "label": "struct EnumerableSet.UintSet",
        "members": [
          {
            "astId": 2944,
            "contract": "contracts/EFFY.sol:EFFY",
            "label": "_inner",
            "offset": 0,
            "slot": "0",
            "type": "t_struct(Set)2559_storage"
          }
        ],
        "numberOfBytes": "64"
      },
      "t_struct(UintToAddressMap)2322_storage": {
        "encoding": "inplace",
        "label": "struct EnumerableMap.UintToAddressMap",
        "members": [
          {
            "astId": 2321,
            "contract": "contracts/EFFY.sol:EFFY",
            "label": "_inner",
            "offset": 0,
            "slot": "0",
            "type": "t_struct(Map)2004_storage"
          }
        ],
        "numberOfBytes": "64"
      },
      "t_uint256": {
        "encoding": "inplace",
        "label": "uint256",
        "numberOfBytes": "32"
      }
    }
  }
}